:100000000C9446000C9465000C9465000C946500FB
:100010000C9465000C9465000C9465000C946500CC
:100020000C9465000C9465000C9465000C946500BC
:100030000C9465000C9465000C9465000C946500AC
:100040000C94DE060C9465000C9465000C9465001D
:100050000C9465000C9465000C9465000C9465008C
:100060000C9465000C9465000C9465000C9465007C
:100070000C9465000C9465000C9465000C9465006C
:100080000C9465000C9465000C94650011241FBE4F
:10009000CFEFD0E1DEBFCDBF12E0A0E0B1E0E4E001
:1000A000FFE000E00BBF02C007900D92A830B1073F
:1000B000D9F714E0A8E0B2E001C01D92A03BB1075F
:1000C000E1F70E9494000C9480070C9400008FEFDD
:1000D0008ABB60E070E0E1E040E951E06730710523
:1000E00094F060E070E0EBBB20ED37E0CA010197CF
:1000F000F1F721503040D1F76F5F7F4F67307105C6
:1001000079F0E695F0CFEBBB20ED37E0CA0101971F
:10011000F1F721503040D1F7EE0F6F5F7F4FDECF08
:1001200060E070E0E1E0DACF0E949405F89487E0A7
:1001300083BF81E087BF84E682BF789487E690E042
:1001400060E070E047E852E020E00E94F1030E9486
:10015000140580E090E00895FA0180839293129252
:10016000129212921292129212921292129212926F
:10017000129212921292129212921292129212925F
:1001800012921292129212921292129212926293FE
:1001900072931292129212921292129212921292DE
:1001A00080E882933197CF010895089508950895C6
:1001B00008950895089508950895089580918902F5
:1001C000813009F00895809126038F3FD9F38F5F26
:1001D00080932603089580918902813009F0089563
:1001E000F894809188028F3F19F08F5F8093880286
:1001F000789408958CEF90E008951F93CF93DF9348
:10020000EC01142F3981E32FF0E0E85FFE4F2081ED
:10021000622F70E0FB01E050FF4F4081DC01A60F30
:10022000B71F16969C911697E92FF0E0E85FFE4FF6
:100230008081E82FF0E0E050FF4F5081220F220F25
:10024000220F280F852F8095892316968C9388235B
:1002500021F4842F809538233983E22FF0E0EE0FCC
:10026000FF1FEE56FB4F0190F081E02D11861086A6
:1002700017821682812F8095928589238287882311
:1002800059F480912003842B80932003FB01EF5DC0
:10029000FC4F8081582B5083822FDF91CF911F918B
:1002A0000895CF93DF93EC01A0912703B091280329
:1002B00017969C938E9316971D968C911D97482F99
:1002C00050E01E963C911E97FA01EF5DFC4F832F84
:1002D00080959081892380838823A9F41F962C918F
:1002E000922F909580912003892380932003FE0113
:1002F000E40FF51F8681832B86838981822B898376
:10030000DF91CF9108951F962C91F1CFCF93DF937A
:10031000EC01A0912703B09128031D968C911D97A5
:10032000FE01E80FF11D1E968C911E978095968117
:1003300089238683882339F41F969C911F97909573
:100340008981892389831A961C921A9717961C9281
:100350001E921697DF91CF910895FC0111821682AB
:10036000178208959C01809126038823D9F4F8947C
:10037000E0912303F0912403309731F0848195813B
:1003800090932403809323037894309749F083E07B
:10039000808333832283158214821182168217820E
:1003A000CF010895E0E0F0E0CF0108951F93CF93CF
:1003B000DF93182FF894C0911A03D0911B03209754
:1003C00009F454C08A819B8190931B0380931A0384
:1003D0007894798368831B871A8619861886E12F9B
:1003E000E695E695E695ED87F0E0E050FF4F8081D9
:1003F0008F87E12FE770EC87F0E0E050FF4F8081BE
:100400008E871F821E82CE010E94DD00CE010E94D7
:10041000D500F894E12FF0E0EE0FFF1FEE56FB4FF2
:10042000D183C083E0919002F0919102FB83EA8333
:100430001D821C82309711F0D583C483D093910222
:10044000C0939002809120039F85892B8093200385
:10045000ED85F0E0EF5DFC4F80819E85892B8083E8
:10046000789480E0DF91CF911F910895789486E48D
:10047000DF91CF911F910895F89480918A02909115
:100480008B02A0918C02B0918D020196A11DB11D2D
:1004900080938A0290938B02A0938C02B0938D027A
:1004A00078940E94DC00E8CFF8948091260388239A
:1004B00009F03FC0809188028823D9F5E09120039C
:1004C000F0E0E85FFE4F8081E82FF0E0EF5DFC4F49
:1004D000E081F0E0E85FFE4F982F990F990F990F98
:1004E0008081980F90938E0280918F02981709F166
:1004F000E92FF0E0EE0FFF1FEE56FB4F8081918158
:1005000090931F0380931E03809112039091130315
:10051000A0911403B09115030196A11DB11D809304
:10052000120390931303A0931403B09315030E9436
:100530004406789408959C01009721F1F894A091C5
:100540002703B09128031D96EC911D97F0E0EF5D15
:10055000FC4F1E968C911E978095908189238083F5
:10056000882349F41F969C911F97909580912003B2
:1005700089238093200319963C932E93189778949F
:100580000E94540208958F929F92AF92BF92CF9291
:10059000DF92EF92FF920F931F93CF93DF93882EFA
:1005A000162F942E8823C9F01C3300F58BE3891590
:1005B00090F093E0283E3907D8F083E5DF91CF91A2
:1005C0001F910F91FF90EF90DF90CF90BF90AF9071
:1005D0009F908F90089582E5F1CF662329F74423F9
:1005E00029F72115310529F784E5E8CF81E5E6CF24
:1005F000B90180E090E024E630E040E050E00E9465
:100600003F076C507E4F8F4F9F4F28EE33E040E006
:1006100050E00E945E0759016A01612F70E080E09E
:1006200090E02CE330E040E050E00E943F077B0187
:100630008C01E90CF11C011D111D682D70E080E09A
:1006400090E020E13EE040E050E00E943F07E60EEF
:10065000F71E081F191FC801B70124E630E040E06B
:1006600050E00E943F07A60EB71EC81ED91E760195
:1006700000271127E7018FEF9FEFA0E0B0E0A8224D
:10068000B922CA22DB22C5010E949B02EF2851F049
:1006900080E090E80E949B0280E090E80E949B022C
:1006A0002197B1F780E08ACFDF92EF92FF920F930C
:1006B0001F9380919104882341F488EC90E00E947C
:1006C0009B02809191048823C1F36091160370917D
:1006D0001703809118039091190324E630E040E05D
:1006E00050E00E945E07C901DA017C018D0144E6F9
:1006F000D42E10C0A80197010E945E078D2D821B89
:1007000087FD44C080931C030E94D80084E690E0DB
:100710000E949B02F89480918A0290918B02A09192
:100720008C02B0918D028093AC049093AD04A093A1
:10073000AE04B093AF0460918A0270918B028091F5
:100740008C0290918D0210928A0210928B0210926C
:100750008C0210928D027894E114F10401051105C8
:1007600049F610921C036091160370911703809153
:1007700018039091190324E630E040E050E00E9415
:100780005E07C901DA017C018D01BECF10921C0306
:10079000BBCF82E090E00E949B02F89410928A0204
:1007A00010928B0210928C0210928D02789484E643
:1007B00090E00E949B02F89480918A0290918B02B3
:1007C000A0918C02B0918D02809316039093170331
:1007D000A0931803B093190381E080939104789457
:1007E0000895AF92BF92CF92DF92EF92FF920F9354
:1007F0001F93CF93DF93FC01122FF894C22FD0E008
:10080000CC0FDD1FCE56DB4F88819981892B71F08B
:10081000789418E2812FDF91CF911F910F91FF9073
:10082000EF90DF90CF90BF90AF90089581E090E07F
:10083000998388837894CF0120E030E00E94AC0057
:10084000BC01812F40E050E020E030E0EE24FF24A6
:100850008701CC24DD24AA24BB240E94D601182FB2
:10086000882371F4F89480911D038F5F80931D039A
:10087000789480918902813069F60E945402CACF2F
:10088000F894198218827894C5CFFC01F89481817C
:10089000882379F4828193812FEF8F3F920731F083
:1008A000019693838283789480E00895789482E31C
:1008B0000895CF0160E070E041E00E94FD0078946F
:1008C0000E94540280E008950F931F93CF93DF930B
:1008D000EC018A0180912603882381F4F8948A81AF
:1008E0009B81009799F001979B838A837894FA0102
:1008F0001082DF91CF911F910F91089582E0FA014C
:100900008083DF91CF911F910F910895E09127038C
:10091000F091280382858160828771876087CE018C
:100920000E94510178940E945402F894E0912703A8
:10093000F0912803828580FD0AC017821682789480
:10094000F8011082DF91CF911F910F910895CE0190
:100950000E94860178948AE0F8018083CACF809152
:100960008902813009F00895F894809188028823E3
:1009700059F0815080938802882321F480912603C6
:10098000882321F0789408957894089578940E94AB
:10099000540208950E94D90080918902813009F0A3
:1009A0000895A0919002B09191021B968C911B9793
:1009B0008C30B1F32091200341E050E01AC01F9623
:1009C0008C911F97282B1D96EC911D97F0E0EF5D01
:1009D000FC4F80811E969C911E97892B80831296D6
:1009E0000D90BC91A02D78941B968C911B978C3008
:1009F000C1F0F89418968D919C911997009779F30E
:100A0000019719969C938E931897892B41F71A9604
:100A10008C911A9783FFD3CF19965C934E931897B6
:100A2000DECF2093200308958091890281110895DB
:100A3000E0912003F0E0E85FFE4FA081EA2FF0E0B4
:100A4000EF5DFC4FE081F0E0E85FFE4FAA0FAA0FD8
:100A5000AA0F8081A80FA0938E02A0938F02B0E00E
:100A6000AA0FBB1FAE56BB4F8D919C9190931F0355
:100A700080931E0390932803809327030E941006FF
:100A8000089580918902813009F00895F894809149
:100A90002603882339F0815080932603882311F0A0
:100AA00078940895809188028823D1F7E0912003FB
:100AB000F0E0E85FFE4F808180932503E82FF0E0AF
:100AC000EF5DFC4FE081F0E0E85FFE4F982F990F5B
:100AD000990F990F8081980F90938E0280918F02C9
:100AE0009817F1F2E92FF0E0EE0FFF1FEE56FB4FE3
:100AF0008081918190931F0380931E038091120344
:100B000090911303A0911403B09115030196A11DB8
:100B1000B11D8093120390931303A0931403B09319
:100B200015030E94A706BCCF0E94DA00109226038C
:100B30001092880210921D031092890210921203E3
:100B400010921303109214031092150310928A024C
:100B500010928B0210928C0210928D021092200340
:100B6000109221031092220310928F0210928E0293
:100B700010921F0310921E03109228031092270355
:100B80001092910210929002E2E9F4E01192119217
:100B900024E0EC3AF207D1F781ED93E0FC013E97B7
:100BA00091838083409624E081399207B9F71092AF
:100BB00084041092830481EC93E090931B03809350
:100BC0001A031092A90381EB93E09093AE038093F4
:100BD000AD031092B10308969093B6038093B503CA
:100BE00040971092B9031092BE031092BD039093E8
:100BF0002403809323038CE392E060E070E048EAF2
:100C000053E02CE00E94F10384E593E060E070E0A3
:100C100041E153E02BE00E94F1030E94DB000895C4
:100C20000E94D70000918902039500938902E09108
:100C30001E03F0911F03C191CDBFD191DEBF0F9173
:100C40000FBF0F910BBFFF91EF91DF91CF91BF913C
:100C5000AF919F918F917F916F915F914F913F9154
:100C60002F911F910F91FF90EF90DF90CF90BF9049
:100C7000AF909F908F907F906F905F904F903F903C
:100C80002F901F900F9008950F921F922F923F92D6
:100C90004F925F926F927F928F929F92AF92BF928C
:100CA000CF92DF92EF92FF920F931F932F933F9378
:100CB0004F935F936F937F938F939F93AF93BF9364
:100CC000CF93DF93EF93FF930BB70F930FB70F9370
:100CD000E0912703F0912803CDB7C193DEB7D193FC
:100CE0000E94D70000918E0200938F02E0911E03B4
:100CF000F0911F03E0932703F0932803C191CDBF28
:100D0000D191DEBF0F910FBF0F910BBFFF91EF91FC
:100D1000DF91CF91BF91AF919F918F917F916F9113
:100D20005F914F913F912F911F910F91FF90EF9005
:100D3000DF90CF90BF90AF909F908F907F906F90FB
:100D40005F904F903F902F901F900F9008950E94BA
:100D5000D70000918E0200938F02E0911E03F09164
:100D60001F03E0932703F0932803C191CDBFD191D6
:100D7000DEBF0F910FBF0F910BBFFF91EF91DF917E
:100D8000CF91BF91AF919F918F917F916F915F9123
:100D90004F913F912F911F910F91FF90EF90DF9016
:100DA000CF90BF90AF909F908F907F906F905F900B
:100DB0004F903F902F901F900F9008950F921F9289
:100DC0002F923F924F925F926F927F928F929F925B
:100DD000AF92BF92CF92DF92EF92FF920F931F9349
:100DE0002F933F934F935F936F937F938F939F9333
:100DF000AF93BF93CF93DF93EF93FF930BB70F9313
:100E00000FB700680F930091260303950093260304
:100E1000013041F4CDB7DEB7E0912703F09128030C
:100E2000C193D19304E602BF78940E94CA040000E3
:100E30000E9441050F910FBF0F910BBFFF91EF91E2
:100E4000DF91CF91BF91AF919F918F917F916F91E2
:100E50005F914F913F912F911F910F91FF90EF90D4
:100E6000DF90CF90BF90AF909F908F907F906F90CA
:100E70005F904F903F902F901F900F900895629F2A
:100E8000D001739FF001829FE00DF11D649FE00D82
:100E9000F11D929FF00D839FF00D749FF00D659FE3
:100EA000F00D9927729FB00DE11DF91F639FB00DE2
:100EB000E11DF91FBD01CF0111240895A1E21A2EF1
:100EC000AA1BBB1BFD010DC0AA1FBB1FEE1FFF1FEE
:100ED000A217B307E407F50720F0A21BB30BE40B3E
:100EE000F50B661F771F881F991F1A9469F7609585
:100EF0007095809590959B01AC01BD01CF0108953F
:040F0000F894FFCF93
:100F040001020408102040800000010002000100DA
:100F140003000100020001000400010002000100BE
:100F240003000100020001000500010002000100AD
:100F3400030001000200010004000100020001009E
:100F4400030001000200010006000100020001008C
:100F5400030001000200010004000100020001007E
:100F6400030001000200010005000100020001006D
:100F7400030001000200010004000100020001005E
:100F8400030001000200010007000100020001004B
:100F9400030001000200010004000100020001003E
:100FA400030001000200010005000100020001002D
:100FB400030001000200010004000100020001001E
:100FC400030001000200010006000100020001000C
:100FD40003000100020001000400010002000100FE
:100FE40003000100020001000500010002000100ED
:100FF40003000100020001000400010002000100DE
:081004000300010002000100DD
:00000001FF
